:040000005EEF05F0BA
:10080000007375736372696265746520616C20633F
:10081000616E616C0A0D006C656420656E63656EC7
:100820006469646F200A0D006C6564206170616703
:1008300061646F200A0D0000000E0A6E08BE25EFED
:1008400004F023EF04F02FEF04F0081E071E061E2D
:10085000056C000E062207220822010E0A6E04BE55
:1008600036EF04F034EF04F040EF04F0041E031EF2
:10087000021E016C000E022203220422010E0A1A3B
:10088000000E0B6E000E0C6E000E0D6E000E0E6E46
:100890000550061007100810D8B451EF04F053EFBC
:1008A00004F089EF04F0010E096E5DEF04F0D890BA
:1008B0000536063607360836092A08AE62EF04F018
:1008C00064EF04F057EF04F0D8900B360C360D3679
:1008D0000E360550015C0650025807500358085068
:1008E0000458D8A076EF04F078EF04F081EF04F01C
:1008F0000550015E0650025A0750035A0850045A28
:100900000B80D8900832073206320532092E64EF88
:1009100004F00A50D8B48FEF04F091EF04F099EF8F
:1009200004F00E1E0D1E0C1E0B6C000E0C220D2270
:100930000E220BC001F00CC002F00DC003F00EC07F
:1009400004F01200000E0F6E4B0E106E000E116EB2
:10095000000E126ED7EC04F0010E036E080E046E4A
:1009600007EC05F03DEC05F0186E310E1818D8A410
:10097000BCEF04F0BEEF04F0C4EF04F0170E026EFB
:10098000080E036E22EC05F0300E1818D8A4CBEF39
:1009900004F0CDEF04F0B2EF04F0280E026E080E62
:1009A000036E22EC05F0B2EF04F000EF00F0000E51
:1009B000016E2D0E026E310E036E010E046E0FC01D
:1009C00013F010C014F011C015F012C016F0040E90
:1009D000D8901336143615361636E82EE8EF04F0A4
:1009E00013C005F014C006F015C007F016C008F0DB
:1009F0001CEC04F00104176EAC84948E949CAC98AB
:100A0000AC9C17C0AFFFAB8EAC8AAB881200050E52
:100A1000056E000E066E10EF05F0075065EC05F050
:100A200003C0F6FF04C0F7FF034A042A0800F5CF0D
:100A300007F00750D8A41FEF05F021EF05F00DEFE8
:100A400005F012002EEF05F002C0F6FF03C0F7FF1D
:100A50000800F55053EC05F0024A032A02C0F6FFE5
:100A600003C0F7FF0800F5500009D8A43AEF05F0DD
:100A70003CEF05F024EF05F012009EAA42EF05F0CE
:100A800044EF05F051EF05F0ABA249EF05F04BEF55
:100A900005F04EEF05F0AB9800F0AB88AE5052EF8A
:100AA00005F0000E1200016E01C0ADFFACA25BEFBD
:100AB00005F05DEF05F056EF05F01200000EF86E40
:100AC000080EF76E0001A2EF04F0026E025053EC24
:040AD00005F012001B
:020000040020DA
:08000000FFFFFFFFFFFFFFFF00
:020000040030CA
:0E000000000C181EFF8381FF0FC00FE00F40A1
:00000001FF
