:04000000B1EF05F067
:1008000000486F7261202000466563686120000027
:100810001D6E1DA802D08B8001D08B901DAA02D026
:100820008B8201D08B921DAC02D08B8401D08B9433
:100830001DAE02D08A8601D08A96898600F08996FC
:100840001D38F00B1D6E1DA802D08B8001D08B903F
:100850001DAA02D08B8201D08B921DAC02D08B845A
:1008600001D08B941DAE02D08A8601D08A968986EB
:1008700000F08996100EE82EFED700D01200060E6A
:10088000C16E73EC04F0F4EC05F075EC05F0CCEC03
:1008900005F093EC05F0E0EC05F0010E1F6E020E82
:1008A00016EC05F0010E1F6E080E206EA3EC04F08E
:1008B00037EC05F0CCEC04F0020E1F6E020E16ECC5
:1008C00005F0080E1F6E080E206EA3EC04F056EC27
:1008D00005F0F1EC04F0820E226EDE0EE82EFED75B
:1008E000222EFCD7DAD79490949294949396929473
:1008F0009296899489968B908B928B948A96410ECE
:100900001F6EEE0EE82EFED71F2EFCD700D0020E73
:1009100025EC06F0280E25EC06F00C0E25EC06F072
:10092000060E25EC06F0010E25EC06F0020E206EF8
:10093000860E1F6E990EE82EFED71F2EFCD7202E96
:10094000FAD700F0120014D01FC0F6FF20C0F7FF46
:10095000F86A070EF76403D00800F55005D0F6CF0B
:10096000E9FFF7CFEAFFEF501FEC06F01F4A202AFD
:100970001FC0F6FF20C0F7FFF86A070EF76403D028
:100980000800F55005D0F6CFE9FFF7CFEAFFEF50AA
:100990000009D8B41200D8D70C380F0B300F1FEC59
:1009A00006F00C500F0B300F1FEC06F03A0E1FEC48
:1009B00006F00D380F0B300F1FEC06F00D500F0B2B
:1009C000300F1FEC06F03A0E1FEC06F00E380F0B3E
:1009D000300F1FEC06F00E500F0B300F1FEC06F01F
:1009E00012000B380F0B300F1FEC06F00B500F0BE3
:1009F000300F1FEC06F02F0E1FEC06F00A380F0B1D
:100A0000300F1FEC06F00A500F0B300F1FEC06F0F2
:100A10002F0E1FEC06F009380F0B300F1FEC06F0FD
:100A200009500F0B300F1FEC06F01200216E0CD096
:100A3000210408D021503F0F05D02150130F02D0C0
:100A40002150530F206E0ED01F50010AD8B4F0D79A
:100A5000030AD8B4EFD7010AD8B4EFD7070AD8B43D
:100A6000EFD7E6D72050800925EC06F0120033ECD2
:100A700006F0D00E06EC06F0000E06EC06F02BECAD
:100A800006F0D10E06EC06F00DEC06F00E6E19EC39
:100A900006F00DEC06F00D6E19EC06F00DEC06F00C
:100AA0000C6E13EC06F02FEC06F0120033EC06F09F
:100AB000D00E06EC06F0040E06EC06F02BEC06F069
:100AC000D10E06EC06F00DEC06F00B6E19EC06F0FC
:100AD0000DEC06F00A6E19EC06F00DEC06F0096E4E
:100AE00013EC06F02FEC06F01200000E1D6E160E31
:100AF0001D24D96EDA6A000EDA220F0EDF161D2AC7
:100B0000060E1D64F4D71650100DF35017240C6E0A
:100B10001850100DF35019240D6E1A50100DF3508B
:100B20001B240E6E1200000E1D6E0F0E1D24D96EBA
:100B3000DA6A000EDA220F0EDF161D2A060E1D6479
:100B4000F4D70F50100DF35010240B6E1150100DF0
:100B5000F35012240A6E1350100DF3501424096E32
:100B60001200FE0EF66E0B0EF76E000EF86E00EE23
:100B70000FF010EE0EF00900F5CFEEFFE550E1505A
:100B8000FAE100EE01F00E0EEE6AE806FDE1000E5D
:100B9000F86E00013FEF04F033EC06F0D00E06ECE7
:100BA00006F0000E06EC06F00E5006EC06F00D50B6
:100BB00006EC06F00C5006EC06F02FEC06F01200E6
:100BC00033EC06F0D00E06EC06F0040E06EC06F050
:100BD0000B5006EC06F00A5006EC06F0095006EC45
:100BE00006F02FEC06F0120093809382800EC76E01
:100BF000280EC66E000EC56E090EC86E1200323089
:100C00003033313900313035383435001D6E9E9621
:100C10001DC0C9FF9EB61200FDD79E96C5869EA632
:100C2000FED7C95012009E96C58AC5889EB612008E
:100C3000FDD79E96C59AC5889EB61200FDD71E6E3A
:100C400089841E5008EC04F012001E6E89941E5018
:100C500008EC04F01200C582C5A21200FDD7C584BD
:0E0C6000C5A41200FDD7C580C5A01200FDD7A7
:020000040020DA
:08000000FFFFFFFFFFFFFFFF00
:020000040030CA
:0E0000000000191EFF8381FF0FC00FE00F40AC
:00000001FF
