:0400000064EF00F0B9
:060008004C8234ED06F00D
:100018004C80D8CF7FF0E8CF80F0E0CF81F0E1CFFF
:1000280082F0E2CF83F0D9CF84F0DACF85F0F6CF33
:1000380086F0F7CF87F0F8CF88F0F5CF89F0F0A6F3
:1000480028EF00F02AEF00F04CEF00F0F0A02FEFBF
:1000580000F031EF00F04CEF00F0010E0001796F75
:10006800080E7A6F00EC07F0660E00017E6F760EC0
:100078007D6FC10EE82EFED77D2FFCD77E2FFAD7D5
:10008800370E0001796F080E7A6F00EC07F0F090D8
:1000980089C0F5FF88C0F8FF87C0F7FF86C0F6FF64
:1000A80085C0DAFF84C0D9FF83C0E2FF82C0E1FFC8
:1000B80081C0E0FF80C0E8FF7FC0D8FF4C901000EF
:0400C8003AEF07F014
:1008000000494E4943494F20494E54455252555094
:1008100043494F4E20494E54310D0A00494E494339
:10082000494F20494E54455252555043494F4E204E
:10083000494E54300A0D0046494E20494E54455207
:1008400052555043494F4E20494E54310D0A000035
:10085000000E0001936F91BF32EF04F030EF04F00F
:100860003CEF04F0911F901F8F1F8E6D000E8F23A1
:1008700090239123010E936F8DBF43EF04F041EF5E
:1008800004F04DEF04F08D1F8C1F8B1F8A6D000E3E
:100890008B238C238D23010E931B000E946F000E6F
:1008A000956F000E966F000E976F8E518F119011FD
:1008B0009111D8B45EEF04F060EF04F096EF04F00D
:1008C000010E926F6AEF04F0D8908E378F37903711
:1008D0009137922B91AF6FEF04F071EF04F064EF5A
:1008E00004F0D89094379537963797378E518A5DB4
:1008F0008F518B5990518C5991518D59D8A083EFBC
:1009000004F085EF04F08EEF04F08E518A5F8F5172
:100910008B5B90518C5B91518D5B9481D89091331E
:1009200090338F338E33922F71EF04F09351D8B4FC
:100930009CEF04F09EEF04F0A6EF04F0971F961FC3
:10094000951F946D000E95239623972394C08AF0EB
:1009500095C08BF096C08CF097C08DF012006DC0E2
:10096000D9FF6EC0DAFFDECFF6FFDDCFF7FF08005C
:10097000F550250AD8A4BFEF04F0C1EF04F00BEF47
:1009800005F06DC0D9FF6EC0DAFFDE2A000EDD2251
:10099000000E226E000E216E21C025F022C026F02E
:1009A000236824686DC0D9FF6EC0DAFFDECFF6FF82
:1009B000DDCFF7FF0800F550250AD8A4E2EF04F0D8
:1009C000E4EF04F0FDEF04F06DC0D9FF6EC0DAFF74
:1009D000DE2A000EDD22000E0001636F250E626F1D
:1009E0006BC064F06CC065F09DEC05F0000E00017A
:1009F0006C6F010E6B6F27EF05F06DC0D9FF6EC0F5
:100A0000DAFFDE2A000EDD22000E00016C6F000E00
:100A10006B6F27EF05F06DC0D9FF6EC0DAFFDECF38
:100A2000F6FFDDCFF7FF0800F5500001626F636B42
:100A30006BC064F06CC065F09DEC05F06DC0D9FF33
:100A40006EC0DAFFDE2A000EDD22F6EF04F012009F
:100A500034C0D9FF35C0DAFFDECFF6FFDDCFF7FFB8
:100A60000800F550250AD8A438EF05F03AEF05F054
:100A700081EF05F034C0D9FF35C0DAFFDE2A000E61
:100A8000DD22000E226E000E216E21C025F022C054
:100A900026F02368246834C0D9FF35C0DAFFDECFE2
:100AA000F6FFDDCFF7FF0800F550250AD8A45BEF6D
:100AB00005F05DEF05F074EF05F034C0D9FF35C0E7
:100AC000DAFFDE2A000EDD22000E2A6E250E296EC8
:100AD00032C02BF033C02CF0E9EC05F0000E336E81
:100AE000010E326E9CEF05F034C0D9FF35C0DAFF3D
:100AF000DE2A000EDD22000E336E000E326E9CEFF9
:100B000005F034C0D9FF35C0DAFFDECFF6FFDDCF08
:100B1000F7FF0800F550296E2A6A32C02BF033C067
:100B20002CF0E9EC05F034C0D9FF35C0DAFFDE2A3D
:100B3000000EDD226EEF05F0120000016451651118
:100B4000D8B4A5EF05F0A7EF05F0B0EF05F06451BC
:100B50006511D8A4AEEF05F0B0EF05F0B5EF05F0E4
:100B6000625171EC07F0E8EF05F020EE09F06451F6
:100B7000D9266551DA22DE50DE10D8B4C2EF05F076
:100B8000C4EF05F0DFEF05F020EE09F06451D9263F
:100B90006551DA2210EE03F06451E1266551E2223C
:100BA000DE50E65CE650800A6A6FDE50800A6A59C1
:100BB000D8B0DDEF05F0DFEF05F0E8EF05F020EE4F
:100BC00003F06451D9266551DA22DE2A000EDD22B7
:100BD00012002B502C10D8B4F0EF05F0F2EF05F016
:100BE000FBEF05F02B502C10D8A4F9EF05F0FBEF2C
:100BF00005F000EF06F0295078EC07F033EF06F02F
:100C000020EE09F02B50D9262C50DA22DE50DE10CF
:100C1000D8B40DEF06F00FEF06F02AEF06F020EE45
:100C200009F02B50D9262C50DA2210EE03F02B506D
:100C3000E1262C50E222DE50E65CE650800A316E5E
:100C4000DE50800A3158D8B028EF06F02AEF06F0BF
:100C500033EF06F020EE03F02B50D9262C50DA2289
:100C6000DE2A000EDD2212000600E1CF44F0E2CFC2
:100C700045F0D9CF46F0DACF47F0F6CF48F0F7CFBE
:100C800049F0F8CF4AF0F5CF4BF0F2A84AEF06F062
:100C90004CEF06F05AEF06F0F2A251EF06F053EFD8
:100CA00006F05AEF06F01C0E406E080E416E27EC5F
:100CB00007F0F2924BC0F5FF4AC0F8FF49C0F7FFBA
:100CC00048C0F6FF47C0DAFF46C0D9FF45C0E2FF83
:100CD00044C0E1FF4C921100000E00018A6F2D0EFE
:100CE0008B6F310E8C6F010E8D6F98C09CF099C088
:100CF0009DF09AC09EF09BC09FF0040ED8909C3748
:100D00009D379E379F37E82E7EEF06F09CC08EF011
:100D10009DC08FF09EC090F09FC091F028EC04F031
:100D200000018A05A06FAC84948E949CAC98AC9C16
:100D3000A0C0AFFFAB8EAC8AAB88120073C077F057
:100D400074C078F0000E0001A26F000EA16FBCEF1E
:100D500006F071C06BF072C06CF0770E6D6F000E14
:100D60006E6F75C06FF076C070F0AFEC04F00001EC
:100D70006B51A1276C51A22377C0F6FF78C0F7FF13
:100D80000800F5500009D8A4C8EF06F0CAEF06F035
:100D9000A9EF06F0A1C071F0A2C072F012003AC033
:100DA0003EF03BC03FF0000E0001A26F000EA16FAD
:100DB000EDEF06F038C032F039C033F03E0E346E3D
:100DC000000E356E3CC036F03DC037F028EC05F023
:100DD00032500001A1273350A2233EC0F6FF3FC08E
:100DE000F7FF0800F5500009D8A4F9EF06F0FBEF73
:100DF00006F0DAEF06F0A1C038F0A2C039F0120018
:100E00007B0E00017B6F000E7C6F000E716F000E79
:100E1000726F79C073F07AC074F07B0E756F000E3C
:100E2000766F9EEC06F012000F0EC16E4CEC07F0D0
:100E3000800E0001986F250E996F000E9A6F000EBC
:100E40009B6F6CEC06F023EF07F064EF00F0420EAE
:100E5000426E000E436E000E386E000E396E40C0BA
:100E60003AF041C03BF0420E3C6E000E3D6ECFECBE
:100E700006F012000001A26BA16B00EE01F0260E3D
:100E8000EE6AE806FDE14C904C92000EF86E080EFA
:100E9000F76E000114EF07F0938093829384F09C27
:100EA000F288F086F088F19CF19AF198D08EF28E5B
:100EB000F28C12000001606F60C0ADFFACA263EF66
:100EC00007F065EF07F05EEF07F01200276E27C00E
:100ED000ADFFACA26EEF07F070EF07F069EF07F01F
:100EE00012000001616F000161515AEC07F012001D
:0A0EF000286E285066EC07F012008F
:020000040020DA
:08000000FFFFFFFFFFFFFFFF00
:020000040030CA
:0E000000000C181EFF8381FF0FC00FE00F40A1
:00000001FF
