:0400000007EF00F016
:10000800148209ED00F085EF00F00600FACF02F047
:10001800FBCF03F0E9CF04F0EACF05F0E1CF06F01B
:10002800E2CF07F0D9CF08F0DACF09F0F3CF0AF022
:10003800F4CF0BF0F6CF0CF0F7CF0DF0F8CF0EF0B1
:10004800F5CF0FF014C010F015C011F016C012F063
:1000580017C013F09EA233EF00F035EF00F048EF21
:1000680000F08AA23AEF00F03EEF00F0016A012AA0
:100078003FEF00F0016A01468A500118FD0B011894
:100088008A6E9E9248EF00F013C017F012C016F067
:1000980011C015F010C014F00FC0F5FF0EC0F8FF26
:1000A8000DC0F7FF0CC0F6FF0BC0F4FF0AC0F3FF4A
:1000B80009C0DAFF08C0D9FF07C0E2FF06C0E1FFA8
:1000C80005C0EAFF04C0E9FF03C0FBFF02C0FAFF56
:1000D80014921100000ECC6EC30ECB6ECA86CA886D
:1000E800CA8ACA8C030ECA12CA84120093928A92D0
:1000F8006EEC00F0F28EF28C9D8281EF00F007EF3B
:0C01080000F01490149200017AEF00F057
:020000040020DA
:08000000FFFFFFFFFFFFFFFF00
:020000040030CA
:0E0000000000181EFF8381FF0FC00FE00F40AD
:00000001FF
