:0400000007EF00F016
:10000800028209ED00F039EF00F006009EA20FEF22
:1000180000F011EF00F022EF00F08AA216EF00F0D6
:100028001AEF00F0016A012A1BEF00F0016A01468D
:100038008A500118FD0B01188A6E9E9202921100D7
:1000480093928A922FEC00F0F28EF28C9D822BEF25
:1000580000F007EF00F0000ECC6EC30ECB6E780EEA
:10006800CA12030ECA12CA84120002900292000138
:0400780024EF00F081
:020000040020DA
:08000000FFFFFFFFFFFFFFFF00
:020000040030CA
:0E0000000000181EFF8381FF0FC00FE00F40AD
:00000001FF
