:0400000007EF00F016
:100008002082FBED00F0C7EF00F018C011F019C016
:1000180012F0030E146EE80E136E56EC00F0115039
:100028001B6E18C011F019C012F0030E146EE80E02
:10003800136EA6EC00F011C018F012C019F018C029
:1000480011F019C012F0000E146E640E136E56EC07
:1000580000F011501C6E18C011F019C012F0000EFB
:10006800146E640E136EA6EC00F011C018F012C0E6
:1000780019F018C011F019C012F0000E146E0A0E13
:10008800136E56EC00F011501D6E18C011F019C017
:1000980012F0000E146E0A0E136EA6EC00F011504A
:1000A8001E6E1200000E166E000E156E1350141000
:1000B800D8B41CD0010E176E04D0D890133614365D
:1000C800172A14AEFAD7D890153616361350115C85
:1000D80014501258D8A005D01350115E1450125A5B
:1000E8001580D89014321332172EEDD715C011F0A1
:1000F80016C012F01200000E956E000E8C6E000EE7
:10010800936E000E816EF28EF28C9E909D80CD8251
:10011800CD86CD9ACD98CD84800ECF6E000ECE6E52
:10012800CD800FC018F010C019F009EC00F0E1EC18
:1001380000F0070E1A6E7D0EE82EFED71A2EFCD799
:1001480000F0EFD713501410D8B418D0010E156E64
:1001580004D0D89013361436152A14AEFAD7135093
:10016800115C14501258D8A004D01350115E1450CA
:10017800125AD89014321332152EF1D711C011F03B
:1001880012C012F012000E0EF66E020EF76E000E7E
:10019800F86E00EE01F010EE10F00900F5CFEEFF5A
:1001A800E550E150FAE11F6A1E6A1D6A1C6A1B6A63
:1001B8002090209200017FEF00F01F501B0FD96E96
:1001C800DA6ADF50116E1150010FD96EDA6ADF500A
:1001D8008C6E1F500B0FD96EDA6ADF508A6E1F2A99
:1001E800040E1F18D8A41200000E1F6E120006007D
:1001F8009EA007D0800ECF6E000ECE6E0F4A102A3A
:100208009E90209211003F065B4F666D7D077F6FC1
:0602180001020408AD1212
:020000040020DA
:08000000FFFFFFFFFFFFFFFF00
:020000040030CA
:0E000000000C181EFF8381FF0FC00FE00F40A1
:00000001FF
