:040000006BEF1BF097
:1008000000566F6C74616A6520252E326600494E71
:1008100046004E414E00696E66006E616E006C6669
:100820000000000E0001756F000E746F36C086F078
:1008300037C087F038C088F039C089F089BF25EF0C
:1008400004F023EF04F03BEF04F0000E756F010E8F
:10085000746F86C001F087C002F088C003F089C0C1
:1008600004F0E4EC1AF001C086F002C087F003C087
:1008700088F004C089F0000E00018D6F000E8C6FAF
:100880005AC078F05BC079F074517511D8A44BEF61
:1008900004F04DEF04F054EF04F05EA452EF04F0C6
:1008A00054EF04F06EEF04F074517511D8A45BEFAF
:1008B00004F05DEF04F063EF04F0000E616F2B0EA7
:1008C000606F67EF04F0000E616F2D0E606F60C007
:1008D00000F18C4B8D2B7807D8A0790786C001F0EA
:1008E00087C002F088C003F089C004F003EC16F062
:1008F00001040210D8A47FEF04F081EF04F0CCEFE4
:1009000004F0BF0E3B6EFF0E3C6E3A503D6E3E6AE9
:100910003B503D263C503E223E5007E11A0E3D5CC6
:10092000D8B095EF04F097EF04F0A6EF04F0000EB6
:1009300000018C25016E010E8D21026E0E0E036EDC
:10094000080E046EB7EC19F0B3EF04F0000E0001CE
:100950008C25016E010E8D21026E160E036E080E9F
:10096000046EB7EC19F00001FD0E7827FF0E792315
:1009700034C011F035C012F0000E136E010E146E6B
:1009800078C015F079C016F0B4EC17F011C034F04F
:1009900012C035F018EF0AF086C001F087C002F0EF
:1009A00088C003F089C004F003EC16F00150021077
:1009B000D8A4DDEF04F0DFEF04F013EF05F0BF0E75
:1009C0003B6EFF0E3C6E3A503D6E3E6A3B503D26FC
:1009D0003C503E223E5007E11A0E3D5CD8B0F3EF8A
:1009E00004F0F5EF04F004EF05F0000E00018C2593
:1009F000016E010E8D21026E120E036E080E046E42
:100A0000B7EC19F0B3EF04F0000E00018C25016E75
:100A1000010E8D21026E1A0E036E080E046EB7ECE5
:100A200019F0B3EF04F0000E00018E6F000E8F6F0F
:100A3000800E906F3F0E916F000E8B6F000E8A6FCD
:100A400086C001F087C002F088C003F089C004F0BE
:100A5000000E056E000E066E000E076E000E086E8C
:100A60006DEC18F0D8B037EF05F039EF05F0BCEFBA
:100A700005F058EF05F08EC00FF08FC010F090C059
:100A800011F091C012F0000E136E000E146E200EC5
:100A9000156E410E166E8EEC0EF00FC08EF010C06B
:100AA0008FF011C090F012C091F000018A4B8B2B97
:100AB00086C028F087C029F088C02AF089C02BF0B2
:100AC000000E136E000E146E200E156E410E166E83
:100AD0008EC00FF08FC010F090C011F091C012F0D6
:100AE0008EEC0EF00FC02CF010C02DF011C02EF0C7
:100AF00012C02FF081EC15F0D8B081EF05F083EF34
:100B000005F03BEF05F0A3EF05F08EC001F08FC0BC
:100B100002F090C003F091C004F0000E056E000ECC
:100B2000066E200E076E410E086EA3EC10F001C099
:100B30008EF002C08FF003C090F004C091F000016D
:100B40008A07D8A08B0786C028F087C029F088C004
:100B50002AF089C02BF08EC02CF08FC02DF090C0F1
:100B60002EF091C02FF081EC15F0D8A0BAEF05F06F
:100B7000BCEF05F085EF05F03AC007F0086A60ECBD
:100B80001AF0075000017B6F7BC07AF0670E7B196B
:100B9000D8A4CDEF05F0CFEF05F0F5EF05F05C50F0
:100BA0005D10D8A4D6EF05F0D8EF05F0DCEF05F026
:100BB000000E5D6E010E5C6E5DBEE9EF05F05D50EE
:100BC00006E15C04D8B0E7EF05F0E9EF05F0EFEFE0
:100BD00005F0000E776F060E766FFEEF05F05CC035
:100BE00076F05DC077F0FEEF05F05DBEFAEF05F040
:100BF000FCEF05F0E9EF05F0EFEF05F0670E7B196C
:100C0000D8A405EF06F007EF06F036EF06F08BAF3D
:100C100015EF06F0FC0E8A5DFF0E8B59D8A013EF7E
:100C200006F015EF06F034EF06F0FF0E3B6EFF0EF8
:100C30003C6E76C03DF077C03EF03B503D263C50C8
:100C40003E228A513D5C3E50800A3F6E8B51800AA5
:100C50003F58D8A02EEF06F030EF06F034EF06F044
:100C6000660E7A6F36EF06F0650E7A6F76C06CF01E
:100C700077C06DF0670E7B19D8A441EF06F043EF03
:100C800006F053EF06F0660E7A19D8A44AEF06F084
:100C90004CEF06F055EF06F08BBF53EF06F051EF27
:100CA00006F055EF06F06C4B6D2B660E7A19D8A442
:100CB0005CEF06F05EEF06F07EEF06F08BBF65EFAF
:100CC00006F063EF06F071EF06F0000E8E6F000E77
:100CD0008F6F800E906F3F0E916F000E8B6F000E26
:100CE0008A6F670E7B19D8B478EF06F07AEF06F0BA
:100CF0007EEF06F08A516C278B516D23000E856FB5
:100D0000000E846F86C07CF087C07DF088C07EF0C6
:100D100089C07FF08EC06EF08FC06FF090C070F011
:100D200091C071F00FEF07F07CC001F07DC002F0C0
:100D30007EC003F07FC004F08EC005F08FC006F0C7
:100D400090C007F091C008F0A3EC10F001C01AF0B9
:100D500002C01BF003C01CF004C01DF070EC12F0C8
:100D60001AC080F01BC081F01CC082F01DC083F04F
:100D700080C001F081C002F082C003F083C004F0A3
:100D8000FEEC14F001C072F002C073F07CC028F0D9
:100D90007DC029F07EC02AF07FC02BF08EC013F0FA
:100DA0008FC014F090C015F091C016F080C00FF005
:100DB00081C010F082C011F083C012F08EEC0EF0F2
:100DC0000FC02CF010C02DF011C02EF012C02FF06B
:100DD00083EC1AF028C07CF029C07DF02AC07EF098
:100DE0002BC07FF08EC001F08FC002F090C003F0E6
:100DF00091C004F0000E056E000E066E200E076E08
:100E0000410E086EA3EC10F001C08EF002C08FF00E
:100E100003C090F004C091F00001844B852B6C510D
:100E2000845D8551800A3B6E6D51800A3B58D8A085
:100E30001CEF07F01EEF07F094EF06F08EC00FF0E6
:100E40008FC010F090C011F091C012F0000E136E20
:100E5000000E146EA00E156E400E166E8EEC0EF087
:100E60000FC080F010C081F011C082F012C083F07A
:100E70007CC028F07DC029F07EC02AF07FC02BF016
:100E800080C02CF081C02DF082C02EF083C02FF0E6
:100E900081EC15F0D8B04FEF07F051EF07F05CEFA1
:100EA00007F0000E0001806F000E816F000E826F50
:100EB000000E836F85EF07F07CC001F07DC002F06B
:100EC0007EC003F07FC004F080C005F081C006F052
:100ED00082C007F083C008F06DEC18F0D8A073EF63
:100EE00007F075EF07F085EF07F0000172B17BEFB7
:100EF00007F07DEF07F085EF07F0000E806F000E22
:100F0000816F000E826F000E836F86C001F087C074
:100F100002F088C003F089C004F080C005F081C0F1
:100F200006F082C007F083C008F019EC0AF001C097
:100F30007CF002C07DF003C07EF004C07FF07CC076
:100F400028F07DC029F07EC02AF07FC02BF0000E73
:100F5000136E000E146E200E156E410E166E6EC0CE
:100F60000FF06FC010F070C011F071C012F08EEC75
:100F70000EF00FC02CF010C02DF011C02EF012C0DA
:100F80002FF081EC15F0D8A0C8EF07F0CAEF07F0FA
:100F9000F3EF07F000018A4B8B2B6EC00FF06FC090
:100FA00010F070C011F071C012F0000E136E000E40
:100FB000146E200E156E410E166E8EEC0EF00FC0E4
:100FC0006EF010C06FF011C070F012C071F0660EBC
:100FD00000017A19D8A4EFEF07F0F1EF07F0F3EF73
:100FE00007F06C4B6D2B6EC08EF06FC08FF070C031
:100FF00090F071C091F0650E00017A19D8B403EF3A
:1010000008F005EF08F00BEF08F08AC06AF08BC01B
:101010006BF00FEF08F0000E6B6F000E6A6F000EA2
:10102000696F000E686F000E676F000E666F000E2E
:10103000856F000E846F0BEF09F07CC001F07DC05E
:1010400002F07EC003F07FC004F08EC005F08FC0B8
:1010500006F090C007F091C008F0A3EC10F001C0BA
:101060001AF002C01BF003C01CF004C01DF070ECAD
:1010700012F01AC080F01BC081F01CC082F01DC0AD
:1010800083F080C001F081C002F082C003F083C011
:1010900004F0FEEC14F001C072F002C073F05EB810
:1010A00054EF08F056EF08F074EF08F000017251A9
:1010B0007311D8A45EEF08F060EF08F074EF08F049
:1010C000670E7B19D8A467EF08F069EF08F074EF9A
:1010D00008F06BBF70EF08F06EEF08F074EF08F0E7
:1010E000664B672BBFEF08F0000168516911D8A467
:1010F0007CEF08F07EEF08F0A8EF08F06BBF85EFFB
:1011000008F083EF08F0A8EF08F0000E8C25D96EE8
:10111000010E8D21DA6E2E0EDF6E8C4B8D2B780733
:10112000D8A07907000E696F010E686FA8EF08F06C
:10113000000E8C25D96E010E8D21DA6E300EDF6E19
:101140008C4B8D2B7807D8A079076607D8A0670746
:1011500066516711D8A4AFEF08F0B1EF08F098EF2F
:1011600008F0000E8C25D96E010E8D21DA6E7251B9
:10117000300FDF6E8C4B8D2B7807D8A079077CC0A1
:1011800028F07DC029F07EC02AF07FC02BF08EC0F1
:1011900013F08FC014F090C015F091C016F080C00D
:1011A0000FF081C010F082C011F083C012F08EECFD
:1011B0000EF00FC02CF010C02DF011C02EF012C098
:1011C0002FF083EC1AF028C07CF029C07DF02AC0F3
:1011D0007EF02BC07FF08EC001F08FC002F090C077
:1011E00003F091C004F0000E056E000E066E200E96
:1011F000076E410E086EA3EC10F001C08EF002C025
:101200008FF003C090F004C091F000016A07D8A0ED
:101210006B07844B852B6C51845D8551800A3B6E36
:101220006D51800A3B58D8B018EF09F01AEF09F059
:1012300028EF09F08DBF26EF09F08D5109E14B0E23
:101240008C5DD8A026EF09F028EF09F01DEF08F01B
:1012500068516911D8A42FEF09F031EF09F042EF7E
:1012600009F05EA836EF09F038EF09F042EF09F017
:10127000000E8C25D96E010E8D21DA6E2E0EDF6EDA
:101280008C4B8D2B000E8C25D96E010E8D21DA6EC4
:10129000000EDF6E650E7A19D8A451EF09F053EFF6
:1012A00009F0B8EF04F0000E856F4F0E846F000E4A
:1012B0008425D96E010E8521DA6E000EDF6E000ED8
:1012C000756F000E746F8BBF6AEF09F068EF09F05D
:1012D00072EF09F0000E756F010E746F8A6D8B1F2F
:1012E000D8B08B2B000E776F020E766FA3EF09F04C
:1012F0008407D8A08507000E8425D96E010E8521AC
:10130000DA6E8AC001F08BC002F0000E046E0A0E85
:10131000036E15EC18F00150300FDF6E8AC001F03B
:101320008BC002F0000E046E0A0E036E52EC17F032
:1013300001C08AF002C08BF000017607D8A07707C1
:101340007807D8A079078A518B11D8A4AAEF09F0A1
:10135000ACEF09F078EF09F077BFB9EF09F07751FA
:1013600006E17605D8B0B7EF09F0B9EF09F078EFEC
:1013700009F08407D8A0850774517511D8A4C3EF6C
:1013800009F0C5EF09F0CBEF09F0000E636F2B0EEB
:10139000626FCFEF09F0000E636F2D0E626F000ECB
:1013A0008425D96E010E8521DA6E62C0DFFF7807D1
:1013B000D8A079078407D8A08507BF0E3B6EFF0E23
:1013C0003C6E3A503D6E3E6A3B503D263C503E22BC
:1013D0003E5009E11A0E3D5CD8A0F1EF09F0F3EFA1
:1013E00009F0F9EF09F0000E656F650E646FFDEF0F
:1013F00009F0000E656F450E646F000E8425D96EEE
:10140000010E8521DA6E64C0DFFF7807D8A0790766
:10141000000E8C25016E010E8D21026E000E8425BA
:10142000036E010E8521046EB7EC19F0B8EF04F0DD
:1014300012000450800B0D6E045004240F6E03AE96
:1014400024EF0AF026EF0AF027EF0AF00F800F5082
:10145000D8B42DEF0AF02FEF0AF044EF0AF00F286E
:10146000D8A435EF0AF037EF0AF03FEF0AF0000E8C
:10147000016E000E026E000E036E000E046E038EEF
:10148000000E046E4CEF0AF0000E016E000E026EAC
:10149000000E036E000E046E0850800B0E6E0D5091
:1014A0000E18D8B456EF0AF058EF0AF059EF0AF0C8
:1014B0000D8C085008240E6E07AE61EF0AF063EF42
:1014C0000AF064EF0AF00E800E50D8B46AEF0AF00A
:1014D0006CEF0AF081EF0AF00E28D8A472EF0AF040
:1014E00074EF0AF07CEF0AF0000E056E000E066E37
:1014F000000E076E000E086E078E000E086E89EF54
:101500000AF0000E056E000E066E000E076E000E4D
:10151000086E0F500E5CD8B090EF0AF092EF0AF010
:10152000B9EF0AF00DAC97EF0AF099EF0AF09BEFD4
:101530000AF0800E0D1A0FC010F00EC00FF010C090
:101540000EF001C010F005C001F010C005F002C09F
:1015500010F006C002F010C006F003C010F007C083
:1015600003F010C007F004C010F008C004F010C071
:1015700008F0000E106E0F500EC009F00A6A095EE6
:10158000000E0A5A0ABECEEF0AF00A5009E11A0EFE
:10159000095CD8A0CEEF0AF0D0EF0AF007EF0BF00D
:1015A0000150021003100410D8A4D9EF0AF0DCEFA8
:1015B0000AF0010EDDEF0AF0000E106E000E016E53
:1015C000000E026E000E036E000E046E0EC00FF0D1
:1015D00010EF0BF010A0EFEF0AF0F1EF0AF0F7EFC9
:1015E0000AF0D89010300109106EF9EF0AF0D89087
:1015F000103201A0FEEF0AF000EF0BF001EF0BF04C
:10160000108E043404320332023201320F2A0E509B
:101610000F5CD8A00EEF0BF010EF0BF0EAEF0AF022
:101620000DBC15EF0BF017EF0BF057EF0BF00F5051
:10163000D8A41DEF0BF01FEF0BF029EF0BF0000EFD
:10164000016E000E026E000E036E000E046E78EF47
:101650000CF00550012606500222075003220850C4
:10166000042204A036EF0BF038EF0BF0E4EF0BF0A0
:1016700010A03DEF0BF03FEF0BF045EF0BF0D890D3
:1016800010300109106E47EF0BF0D890103201A016
:101690004CEF0BF04EEF0BF04FEF0BF0108E0434CD
:1016A00004320332023201320F2AE4EF0BF005500C
:1016B000015C06500258075003580450800A096E16
:1016C0000850800A0958D8B068EF0BF06AEF0BF0A9
:1016D00095EF0BF00150055C096E025006580A6E3A
:1016E000035007580B6E045008580C6EFF0E092467
:1016F000016EFF0E0A20026EFF0E0B20036EFF0E1E
:101700000C20046E800E0D1A106C1050D8A48BEFB4
:101710000BF08DEF0BF09DEF0BF0010E0126000E8C
:101720000222032204229DEF0BF00550015E0650B9
:10173000025A0750035A0850045A0150021003106D
:101740000410D8A4A6EF0BF0A8EF0BF0DDEF0BF020
:101750001050D8A4AEEF0BF0B0EF0BF0DDEF0BF0B4
:10176000000E016E000E026E000E036E000E046E7F
:1017700078EF0CF0D890013602360336043610AEFE
:10178000C4EF0BF0C6EF0BF0C7EF0BF0018010A019
:10179000CCEF0BF0CEEF0BF0D2EF0BF0D880103681
:1017A000D4EF0BF0D89010360F50D8B4DAEF0BF01E
:1017B000DCEF0BF0DDEF0BF00F0603AEE2EF0BF00A
:1017C000E4EF0BF0BAEF0BF0000E0E6E10AEEBEF85
:1017D0000BF0EDEF0BF005EF0CF010C009F07F0EF1
:1017E0000916D8B4F6EF0BF0F8EF0BF0FCEF0BF0A6
:1017F000010E0E6E05EF0CF001A001EF0CF003EFEF
:101800000CF005EF0CF0F8EF0BF00E50D8B40BEF26
:101810000CF00DEF0CF038EF0CF0010E0126000E6D
:1018200002220322042204A018EF0CF01AEF0CF09D
:1018300038EF0CF001C009F002C00AF003C00BF051
:1018400004C00CF00C340C320B320A32093209C0DD
:1018500001F00AC002F00BC003F00CC004F00F2826
:10186000D8B435EF0CF037EF0CF038EF0CF00F2A4E
:101870000F28D8B43EEF0CF040EF0CF048EF0CF01E
:101880000F50D8A446EF0CF048EF0CF05AEF0CF0D4
:10189000000E016E000E026E000E036E000E046E4E
:1018A0000F50D8A456EF0CF058EF0CF05AEF0CF094
:1018B000000E0D6E0FA05FEF0CF061EF0CF064EF07
:1018C0000CF0038E65EF0CF0039ED8900F30046E81
:1018D0000DAE6DEF0CF06FEF0CF070EF0CF0048EAE
:1018E00001C001F002C002F003C003F004C004F024
:1018F000120042C0D9FF43C0DAFFDECFF6FFDDCFD2
:10190000F7FF0800F550250AD8A489EF0CF08BEFFB
:101910000CF072EF0EF042C0D9FF43C0DAFFDE2AAE
:10192000000EDD22000E5B6E000E5A6E5AC05EF095
:101930005BC05FF05C685D6842C0D9FF43C0DAFFFE
:10194000DECFF6FFDDCFF7FF0800F5502E0AD8A452
:10195000ACEF0CF0AEEF0CF01EEF0DF0000E5D6E74
:10196000000E5C6E42C0D9FF43C0DAFFDE2A000ED3
:10197000DD2242C0D9FF43C0DAFFDECFF6FFDDCF64
:10198000F7FF0800F5502A0AD8A4C9EF0CF0CBEFF6
:101990000CF0E8EF0CF042C0D9FF43C0DAFFDE2ABA
:1019A000000EDD2244C0D9FF45C0DAFFDFCF46F08C
:1019B000020EDE26DFCF47F0000EDD2246C0D9FF43
:1019C00047C0DAFFDECF5CF0DDCF5DF01EEF0DF03B
:1019D00042C0D9FF43C0DAFFDECF08F0DDCF09F007
:1019E00053EC14F008C05CF009C05DF0FFEF0CF0A0
:1019F00042C0D9FF43C0DAFFDE2A000EDD22D00E3E
:101A0000466EFF0E476E42C0D9FF43C0DAFFDECFFD
:101A1000F6FFDDCFF7FF0800F550486E496A4650E3
:101A2000482647504922495009E10A0E485CD8A08F
:101A30001CEF0DF01EEF0DF0F8EF0CF042C0D9FFD7
:101A400043C0DAFFDECFF6FFDDCFF7FF0800F55029
:101A5000076E086A60EC1AF007504E6E4E50D8B40C
:101A600034EF0DF036EF0DF06EEF0DF042C0D9FF00
:101A700043C0DAFFDECF46F0DDCF47F0010E462649
:101A8000000E472246C0F6FF47C0F7FF0800F5509A
:101A9000076E086A60EC1AF007504F6E4F50D8B4CA
:101AA00054EF0DF056EF0DF06EEF0DF042C0D9FF80
:101AB00043C0DAFFDECF46F0DDCF47F0020E462608
:101AC000000E472246C0F6FF47C0F7FF0800F5505A
:101AD000076E086A60EC1AF00750506E660E4E18DA
:101AE000D8A475EF0DF077EF0DF0B7EF0DF042C011
:101AF000D9FF43C0DAFFDECFF6FFDDCFF7FF0800E6
:101B0000F5CF51F042C0D9FF43C0DAFFDE2A000E04
:101B1000DD2244C0D9FF45C0DAFFDFCF46F0040E16
:101B2000DE26DFCF47F0000EDD2246C0D9FF47C0DA
:101B3000DAFFDECF4AF0DECF4BF0DECF4CF0DECF67
:101B40004DF040C034F041C035F04AC036F04BC0D3
:101B500037F04CC038F04DC039F051C03AF011ECBC
:101B600004F034C040F035C041F08DEF0EF04E0E61
:101B7000016E000E026E1E0E036E080E046E000E45
:101B8000066E020E056E82EC16F001500210D8A40B
:101B9000CCEF0DF0CEEF0DF03CEF0EF042C0D9FFD0
:101BA00043C0DAFFDECF46F0DDCF47F0010E462618
:101BB000000E472246C0F6FF47C0F7FF0800F5CFEA
:101BC00051F0BF0E466EFF0E476E42C0D9FF43C0B4
:101BD000DAFFDECFF6FFDDCFF7FF0800F550486EE5
:101BE000496A4650482647504922495007E11A0E93
:101BF000485CD8B0FEEF0DF000EF0EF01AEF0EF0DB
:101C000044C0D9FF45C0DAFFDFCF46F0040EDE2620
:101C1000DFCF47F0000EDD2246C0D9FF47C0DAFF14
:101C2000DECF4AF0DECF4BF0DECF4CF0DECF4DF012
:101C300032EF0EF044C0D9FF45C0DAFFDFCF46F0E7
:101C4000040EDE26DFCF47F0000EDD2246C0D9FFAE
:101C500047C0DAFFDECF4AF0DECF4BF0DECF4CF0EC
:101C6000DECF4DF0020E42C0D9FF43C0DAFFDE26C0
:101C7000000EDD22A1EF0DF042C0D9FF43C0DAFF14
:101C8000DECFF6FFDDCFF7FF0800F550250AD8A418
:101C90004CEF0EF04EEF0EF065EF0EF042C0D9FFA4
:101CA00043C0DAFFDE2A000EDD22000E026E250E92
:101CB000016E40C003F041C004F0EDEC16F0000EE0
:101CC000416E010E406E8DEF0EF042C0D9FF43C051
:101CD000DAFFDE2A000EDD22000E416E000E406E9D
:101CE0008DEF0EF042C0D9FF43C0DAFFDECFF6FF22
:101CF000DDCFF7FF0800F550016E026A40C003F027
:101D000041C004F0EDEC16F042C0D9FF43C0DAFF49
:101D1000DE2A000EDD225FEF0EF012001250800B63
:101D20001B6E12501224216E11AE99EF0EF09BEF34
:101D30000EF09CEF0EF021802150D8B4A2EF0EF0EF
:101D4000A4EF0EF0B7EF0EF02128D8A4AAEF0EF002
:101D5000ACEF0EF0B4EF0EF0000E0F6E000E106E32
:101D6000000E116E000E126E118EBFEF0EF0000EFF
:101D70000F6E000E106E000E116E000E126E1650D9
:101D8000800B1B1A16501624206E15AECAEF0EF0EB
:101D9000CCEF0EF0CDEF0EF020802050D8B4D3EF72
:101DA0000EF0D5EF0EF0E8EF0EF02028D8A4DBEF10
:101DB0000EF0DDEF0EF0E5EF0EF0000E136E000EEC
:101DC000146E000E156E000E166E158EF0EF0EF0EE
:101DD000000E136E000E146E000E156E000E166EC1
:101DE0002050D8B4F6EF0EF0F8EF0EF000EF0FF041
:101DF0002150D8A4FEEF0EF000EF0FF00AEF0FF025
:101E0000000E0F6E000E106E000E116E000E126EA0
:101E1000A2EF10F015500F02F3CF26F0F4CF27F009
:101E200026501C6E1D6A1E6A1F6A2750226E236A86
:101E3000246A256A14501002F3CF26F0F4CF27F05D
:101E400026501C26000E1D221E221F22275022264D
:101E5000000E23222422252213501102F3CF26F054
:101E6000F4CF27F026501C26000E1D221E221F2212
:101E700027502226000E2322242225221EC01FF0D6
:101E80001DC01EF01CC01DF01C6A13501002F3CFC1
:101E900026F0F4CF27F026501C2627501D22000ED6
:101EA0001E22000E1F2214500F02F3CF26F0F4CF93
:101EB00027F026501C2627501D22000E1E22000E41
:101EC0001F221EC01FF01DC01EF01CC01DF01C6A8A
:101ED00013500F02F3CF26F0F4CF27F026501C2624
:101EE00027501D22000E1E22000E1F221550100228
:101EF000F3CF26F0F4CF27F02650222627502322B6
:101F0000000E2422000E252214501102F3CF26F0D9
:101F1000F4CF27F02650222627502322000E242219
:101F2000000E252215501102F3CF26F0F4CF27F032
:101F30002650176E2750186E196A1A6A19C01AF0BF
:101F400018C019F017C018F0176A17502226185039
:101F50002322195024221A5025221CC017F01DC01C
:101F600018F01EC019F01FC01AF0190EBDEF0FF0C7
:101F7000D8901A32193218321732E82EB8EF0FF013
:101F80001750222618502322195024221A50252295
:101F90001EC01FF01DC01EF01CC01DF01C6A20508A
:101FA00021C017F0186A1726000E1822820E172477
:101FB000266EFF0E1820276EF3EF0FF0D890223612
:101FC0002336243625361FAEE8EF0FF0EAEF0FF088
:101FD000EBEF0FF02280D8901C361D361E361F36D0
:101FE0002606D8A0270624AEF8EF0FF0FAEF0FF080
:101FF000DEEF0FF0000E206E1FAE01EF10F003EFCA
:1020000010F027EF10F0FF0E1C14176EFF0E1D14BA
:10201000186EFF0E1E14196E7F0E1F141A6E1750C5
:10202000181019101A10D8B418EF10F01AEF10F099
:102030001EEF10F0010E206E27EF10F022A023EF0C
:1020400010F025EF10F027EF10F01AEF10F02050ED
:10205000D8B42DEF10F02FEF10F053EF10F0010E69
:102060002226000E23222422252225A03AEF10F05A
:102070003CEF10F053EF10F022C017F023C018F01F
:1020800024C019F025C01AF01A341A321932183245
:10209000173217C022F018C023F019C024F01AC05C
:1020A00025F0264A272A27BE5EEF10F0275008E1C8
:1020B0002628D8A05EEF10F060EF10F06AEF10F065
:1020C000000E226E000E236E800E246E7F0E256E93
:1020D00098EF10F027BE77EF10F0275006E12604A6
:1020E000D8B075EF10F077EF10F083EF10F0000E1E
:1020F000226E000E236E000E246E000E256E000E62
:102100001B6E98EF10F026C021F0FF0E2216FF0E76
:1021100023167F0E2416000E251621A092EF10F034
:1021200094EF10F095EF10F0248ED8902130256EAA
:102130001B50251222C00FF023C010F024C011F054
:1021400025C012F012000450800B116E04500424BC
:10215000186E03AEAEEF10F0B0EF10F0B1EF10F06C
:1021600018801850D8B4B7EF10F0B9EF10F0CEEFD8
:1021700010F01828D8A4BFEF10F0C1EF10F0C9EF8D
:1021800010F0000E016E000E026E000E036E000EC7
:10219000046E038E000E046ED6EF10F0000E016E7A
:1021A000000E026E000E036E000E046E0850800BCF
:1021B000111A08500824196E07AEE1EF10F0E3EF92
:1021C00010F0E4EF10F019801950D8B4EAEF10F0D5
:1021D000ECEF10F001EF11F01928D8A4F2EF10F095
:1021E000F4EF10F0FCEF10F0000E056E000E066E1E
:1021F000000E076E000E086E078E000E086E09EFC7
:1022000011F0000E056E000E066E000E076E000E39
:10221000086E0550061007100810D8A412EF11F030
:1022200014EF11F02CEF11F0000E016E000E026E93
:10223000000E036E000E046E800E03127F0E041259
:102240001150041201C001F002C002F003C003F0FB
:1022500004C004F06FEF12F01850D8A432EF11F060
:1022600034EF11F03EEF11F0000E016E000E026E21
:10227000000E036E000E046E6FEF12F0195018C0BE
:1022800009F00A6A095E000E0A5A7F0E0924126ECE
:10229000000E0A20136E01C00DF002C00EF003C044
:1022A0000FF004C010F0000E016E000E026E000E62
:1022B000036E000E046E000E146E000E156E000EFE
:1022C000166E000E176E000E196E9FEF11F019506A
:1022D000D8B46DEF11F06FEF11F086EF11F0D890D8
:1022E0000D360E360F361036D890013602360336CC
:1022F000043617AE7EEF11F080EF11F081EF11F090
:102300000180D890143615361636173605500D5CF8
:1023100006500E5807500F5808501058D8A093EF89
:1023200011F095EF11F09EEF11F0178C05500D5E36
:1023300006500E5A07500F5A0850105A192A190EF3
:102340001964A5EF11F0A7EF11F067EF11F00D5030
:102350000E100F101010D8B4B0EF11F0B2EF11F052
:10236000CAEF11F01480CAEF11F0D890013602368E
:102370000336043617AEBFEF11F0C1EF11F0C2EF14
:1023800011F00180D890143615361636173612061D
:10239000D8A0130603AECFEF11F0D1EF11F0B5EFD7
:1023A00011F0000E196E17AED8EF11F0DAEF11F040
:1023B000FEEF11F0FF0E1414096EFF0E15140A6ED5
:1023C000FF0E16140B6E7F0E17140C6E09500A10B8
:1023D0000B100C10D8B4EFEF11F0F1EF11F0F5EF96
:1023E00011F0010E196EFEEF11F001A0FAEF11F0DD
:1023F000FCEF11F0FEEF11F0F1EF11F01950D8B42D
:1024000004EF12F006EF12F02AEF12F0010E01268F
:10241000000E02220322042204A011EF12F013EF97
:1024200012F02AEF12F001C009F002C00AF003C056
:102430000BF004C00CF00C340C320B320A320932AF
:1024400009C001F00AC002F00BC003F00CC004F098
:10245000124A132A13BE35EF12F0135008E1122866
:10246000D8A035EF12F037EF12F042EF12F0000E65
:10247000136E1268000E016E000E026E000E036EE7
:10248000000E046E13BE4FEF12F0135006E112045B
:10249000D8B04DEF12F04FEF12F05DEF12F0000EDA
:1024A000136E000E126E000E016E000E026E000E14
:1024B000036E000E046E000E116E12C018F018A00C
:1024C00064EF12F066EF12F069EF12F0038E6AEF1C
:1024D00012F0039ED8901830046E20EF11F0120015
:1024E000B7C02AF0B8C02BF0B9C02CF0BAC02DF09C
:1024F0001AC02AF01BC02BF01CC02CF01DC02DF000
:10250000810E1E6EFF0E1F6E2AC020F02BC021F020
:102510002CC022F02DC023F0180E94EF12F0D890AA
:102520002332223221322032E82E8FEF12F0205057
:102530001E24286E000E1F20296E29BEA9EF12F05E
:10254000295009E1170E285CD8A0A9EF12F0ABEFD3
:1025500012F0B5EF12F01AC01AF01BC01BF01CC02D
:102560001CF01DC01DF078EF13F029BEBAEF12F079
:10257000BCEF12F02CEF13F028C01EF0FF0E1F6E00
:10258000FF0E206E7F0E216E000E226E1E66CBEFB8
:1025900012F0D3EF12F022342232213220321F32D5
:1025A0001E2EC6EF12F01FC024F020C025F021C05F
:1025B00026F022C027F024502A141E6E25502B141A
:1025C0001F6E26502C14206E27502D14216E1E5085
:1025D0001F1020102110D8A4F0EF12F0F2EF12F02B
:1025E000F4EF12F0ABEF12F02AC01EF02BC01FF078
:1025F0002CC020F02DC021F0200E04EF13F0D89055
:10260000213220321F321E32E82EFFEF12F01E5010
:102610001F1020102110D8B410EF13F012EF13F098
:102620001AEF13F024502A2625502B2226502C2254
:1026300027502D22241C1E6E251C1F6E261C206E6A
:10264000271C216E1E502A161F502B1620502C16A8
:1026500021502D1670EF13F02AC01EF02BC01FF072
:102660002CC020F02DC021F0200E3CEF13F0D890AC
:10267000213220321F321E32E82E37EF13F01E5067
:102680001F1020102110D8A448EF13F04AEF13F0C8
:1026900054EF13F0000E2A6E000E2B6E000E2C6EFF
:1026A000000E2D6E70EF13F0D8902A341E6E2B346E
:1026B0001F6E2C34206E2D34216E1E501F102010E2
:1026C0002110D8B466EF13F068EF13F070EF13F039
:1026D000000E2A6E000E2B6E800E2C6EBF0E2D6E1D
:1026E0002AC01AF02BC01BF02CC01CF02DC01DF00E
:1026F0001200096E0950D8B480EF13F082EF13F086
:10270000A4EF13F004BE89EF13F087EF13F0A4EFEA
:1027100013F001C005F002C006F003C007F004C0CA
:1027200008F0051E061E071E081E052A000E0622BA
:102730000722082205C00BF006C00CF007C00DF000
:1027400008C00EF0ACEF13F001C00BF002C00CF0AB
:1027500003C00DF004C00EF001500210031004106D
:10276000D8A4B5EF13F0B7EF13F0C1EF13F0000EDC
:10277000016E000E026E000E036E000E046E52EF2C
:1027800014F0960E0A6ECBEF13F00A2AD8900E3290
:102790000D320C320B32000E0B14056E000E0C14B1
:1027A000066E000E0D14076EFE0E0E14086E055018
:1027B000061007100810D8A4E0EF13F0E2EF13F0B2
:1027C000C5EF13F0F0EF13F00A2A010E0B26000EEE
:1027D0000C220D220E22D8900E320D320C320B320A
:1027E000000E0B14056E000E0C14066E000E0D1478
:1027F000076EFF0E0E14086E055006100710081025
:10280000D8A405EF14F007EF14F0E4EF13F00FEF86
:1028100014F00A06D8900B360C360D360E360DBE67
:1028200014EF14F016EF14F01EEF14F0020E0A600D
:102830001CEF14F01EEF14F009EF14F00AB023EFB0
:1028400014F025EF14F026EF14F00D9ED8900A3204
:102850000AC005F0066A076A086A05C008F0076A38
:10286000066A056A05500B1206500C1207500D122D
:1028700008500E120950D8B440EF14F042EF14F093
:102880004AEF14F004BE49EF14F047EF14F04AEF9A
:1028900014F00E8E0BC001F00CC002F00DC003F05E
:1028A0000EC004F01200000E116E000E106E000E2D
:1028B0000F6E000E0E6E5FEF14F0084A092A08C072
:1028C000F6FF09C0F7FF0800F550200AD8B46BEFF7
:1028D00014F06DEF14F05DEF14F0F70E0A6EFF0EBA
:1028E0000B6E08C0F6FF09C0F7FF0800F5500C6E2C
:1028F0000D6A0A500C260B500D220D5009E1050EF1
:102900000C5CD8A086EF14F088EF14F05DEF14F0A3
:1029100092EF14F0000E0F6E010E0E6E084A092A97
:10292000C7EF14F008C0F6FF09C0F7FF0800F55024
:102930000A6E0B6A0B50000AD8B4A1EF14F0C7EF6F
:1029400014F00A502B0AD8B48EEF14F0060AD8B44B
:102950008AEF14F0C7EF14F010C001F011C002F0BC
:10296000000E046E0A0E036E82EC1BF008C0F6FF28
:1029700009C0F7FF0800F550015E000E025A300E44
:102980000124106E000E0220116E8EEF14F0D00E96
:102990000A6EFF0E0B6E08C0F6FF09C0F7FF0800B5
:1029A000F5500C6E0D6A0A500C260B500D220D507E
:1029B00009E10A0E0C5CD8A0E0EF14F0E2EF14F08D
:1029C000ACEF14F00E500F10D8A4E9EF14F0EBEFB9
:1029D00014F0F9EF14F010C00AF011C00BF00A1E49
:1029E0000B1E0A4A0B2A0AC008F00BC009F0FDEFC3
:1029F00014F010C008F011C009F0120003340434C0
:102A00000A6E0A50D8A407EF15F009EF15F013EF7E
:102A100015F0000E016E000E026E000E036E000E29
:102A2000046E80EF15F001C005F002C006F003C08F
:102A300007F004C008F0200E23EF15F0D8900832FC
:102A4000073206320532E82E1EEF15F00550096EEA
:102A5000038EFF0E0116FF0E0216FF0E0316000E68
:102A60000416960E0A5E0ABE3AEF15F038EF15F01E
:102A700050EF15F00A50800A970FD8B042EF15F0CA
:102A800044EF15F046EF15F009EF15F0D890043239
:102A90000332023201320A3E46EF15F068EF15F0BC
:102AA0001F0E0A6456EF15F058EF15F060EF15F0A1
:102AB00009EF15F0D89001360236033604360A06BF
:102AC0000A50D8A466EF15F068EF15F05AEF15F02C
:102AD0000950D8B46EEF15F070EF15F078EF15F0DF
:102AE000041E031E021E016C000E02220322042299
:102AF00001C001F002C002F003C003F004C004F002
:102B00001200000E2814306E000E2914316E800E53
:102B10002A14326E7F0E2B14336E30503110321067
:102B20003310D8A496EF15F098EF15F0A0EF15F03C
:102B3000000E286E000E296E000E2A6E000E2B6EFF
:102B4000000E2C14306E000E2D14316E800E2E14DB
:102B5000326E7F0E2F14336E30503110321033101E
:102B6000D8A4B5EF15F0B7EF15F0BFEF15F0000ED4
:102B70002C6E000E2D6E000E2E6E000E2F6E2BAEE4
:102B8000C4EF15F0C6EF15F0CFEF15F0286C291E35
:102B9000D8B0292A2A1ED8B02A2A800E2B562FAE4A
:102BA000D4EF15F0D6EF15F0DFEF15F02C6C2D1EDD
:102BB000D8B02D2A2E1ED8B02E2A800E2F56000EE9
:102BC000281A000E291A000E2A1A800E2B1A000E3F
:102BD0002C1A000E2D1A000E2E1A800E2F1A2C50B1
:102BE000285C2D5029582E502A582F502B58D8B0D9
:102BF000FCEF15F0FEEF15F001EF16F0D89002EFA4
:102C000016F0D8801200BBC00BF0BCC00CF0BDC0E9
:102C10000DF0BEC00EF001C00BF002C00CF003C0FE
:102C20000DF004C00EF00BC005F00CC006F00DC096
:102C300007F00EC008F0180E23EF16F0D8900832F7
:102C4000073206320532E82E1EEF16F00550096EE7
:102C50000A6A09500A10D8A430EF16F032EF16F0C5
:102C600052EF16F0D8900B34056E0C34066E0D340E
:102C7000076E0E34086E0550061007100810D8A411
:102C800044EF16F046EF16F04CEF16F0000E026E11
:102C9000020E016E81EF16F0000E026E030E016E41
:102CA00081EF16F009280A10D8A459EF16F05BEF4F
:102CB00016F07DEF16F00BC005F00CC006F00DC04D
:102CC00007F00EC008F0090ED89005360636073614
:102CD0000836E82E64EF16F00550061007100810AD
:102CE000D8B475EF16F078EF16F0010E79EF16F004
:102CF000000E016E026A81EF16F0000E026E040EE5
:102D0000016E120001C008F002C009F003C00AF011
:102D100004C00BF00506D8A00606052806E1062823
:102D2000D8A495EF16F097EF16F0A4EF16F0000E6A
:102D3000026E000E016EECEF16F0084A092A0A4AEC
:102D40000B2A0506D8A0060608C0D9FF09C0DAFF7D
:102D5000DF50D8B4AEEF16F0B0EF16F0DBEF16F0A0
:102D60000AC0F6FF0BC0F7FF0800F5500009D8B401
:102D7000BCEF16F0BEEF16F0DBEF16F005500610B4
:102D8000D8B4C5EF16F0C7EF16F0DBEF16F008C0A9
:102D9000D9FF09C0DAFFDF50076E0AC0F6FF0BC08B
:102DA000F7FF0800F5500718D8B4D9EF16F0DBEF9D
:102DB00016F09DEF16F008C0D9FF09C0DAFFDF500A
:102DC000076E0AC0F6FF0BC0F7FF0800F550075C5E
:102DD000016E026AD8A00206120003500410D8B493
:102DE000F4EF16F0F6EF16F0FFEF16F003500410B4
:102DF000D8A4FDEF16F0FFEF16F004EF17F0015026
:102E0000B5EC1BF051EF17F020EE09F00350D92676
:102E10000450DA22DE50DE10D8B411EF17F013EFB1
:102E200017F02EEF17F020EE09F00350D9260450CA
:102E3000DA2210EE03F00350E1260450E222DE50C5
:102E4000E65CE650800A096EDE50800A0958D8B068
:102E50002CEF17F02EEF17F051EF17F020EE03F0E4
:102E60000350D9260450DA22DECF05F0DDCF06F07C
:102E700003C0D9FF04C0DAFFDECF07F0DDCF08F0D2
:102E800005500724D96E06500820DA6E01C0DFFF16
:102E900020EE03F00350D9260450DA22DE2A000E79
:102EA000DD221200000E066E04BE5BEF17F059EF34
:102EB00017F061EF17F0036C041ED8B0042A010E5E
:102EC000066E02BE68EF17F066EF17F06EEF17F0B0
:102ED000016C021ED8B0022A010E061A000E086EFE
:102EE000000E076E03500410D8B479EF17F07BEF93
:102EF00017F0A3EF17F0010E056E83EF17F0D890CF
:102F000003360436052A04AE88EF17F08AEF17F06F
:102F10007FEF17F0D890073608360350015C045055
:102F20000258D8A096EF17F098EF17F09DEF17F022
:102F30000350015E0450025A0780D89004320332D5
:102F4000052E8AEF17F00650D8B4A9EF17F0ABEFB3
:102F500017F0AFEF17F0076C081ED8B0082A07C0AB
:102F600001F008C002F012005EA0B9EF17F0BBEF4D
:102F700017F0C5EF17F013C00AF014C00BF011C022
:102F80000CF012C00DF0A6EC1AF016BECAEF17F046
:102F9000CCEF17F0D2EF17F015C01AF016C01BF0E7
:102FA000D6EF17F0000E1B6E000E1A6E000E196E93
:102FB000000E186EE8EF17F0000E026E200E016E84
:102FC00011C003F012C004F0EDEC16F0184A192AF3
:102FD0001A50185C1950800A176E1B50800A175837
:102FE000D8A0F5EF17F0F7EF17F0DCEF17F05EB0B1
:102FF000FCEF17F0FEEF17F008EF18F013C00AF01F
:1030000014C00BF011C00CF012C00DF0A6EC1AF0B9
:1030100013C001F014C002F038EC1BF01A50012468
:10302000116E1B500220126E1200000E066E02BEC0
:103030001EEF18F01CEF18F024EF18F0016C021EC0
:10304000D8B0022A010E066E04BE2BEF18F029EF4D
:1030500018F02FEF18F0036C041ED8B0042A0350A8
:103060000410D8B436EF18F038EF18F05CEF18F011
:10307000010E056E40EF18F0D89003360436052A8D
:1030800004AE45EF18F047EF18F03CEF18F003508E
:10309000015C04500258D8A050EF18F052EF18F01D
:1030A00056EF18F00350015E0450025AD8900432D3
:1030B0000332052E47EF18F00650D8B462EF18F02F
:1030C00064EF18F068EF18F0016C021ED8B0022A05
:1030D00001C001F002C002F01200000E0114096EDE
:1030E000000E02140A6E800E03140B6E7F0E041481
:1030F0000C6E09500A100B100C10D8A482EF18F0B7
:1031000084EF18F08CEF18F0000E016E000E026EC6
:10311000000E036E000E046E000E0514096E000E04
:1031200006140A6E800E07140B6E7F0E08140C6EC8
:1031300009500A100B100C10D8A4A1EF18F0A3EF3F
:1031400018F0ABEF18F0000E056E000E066E000EC4
:10315000076E000E086E055001180FE106500218A8
:103160000CE10750031809E108500418D8B4BBEF6C
:1031700018F0BDEF18F0C0EF18F0D890C1EF18F0BC
:10318000D880120095EC1BF010EC19F0020E37EC11
:103190001AF0000E1CEC1BF001C0B5F002C0B6F036
:1031A000B5C001F0B6C002F0036A046A000E79EC03
:1031B00013F001C00FF002C010F003C011F004C002
:1031C00012F0000E136E000E146EA00E156E3B0E64
:1031D000166E8EEC0EF00FC0B1F010C0B2F011C040
:1031E000B3F012C0B4F0A70E0001926F000E936FFF
:1031F000010E946F080E956FB1C096F0B2C097F0B3
:10320000B3C098F0B4C099F0E5EC19F0A70E036EC6
:10321000000E046E53EC1BF0C6EF18F000EF00F048
:10322000899689948B908B928B948A98929692949B
:1032300094909492949493981A0E046EF80EE82E3B
:10324000FED7042EFCD700D0030E54EC19F0070E65
:10325000046E7D0EE82EFED7042EFCD700F0030E80
:1032600054EC19F0210EE82EFED700F0030E54ECBA
:1032700019F0210EE82EFED700F0020E54EC19F0E2
:10328000210EE82EFED700F0280E37EC1AF00C0EB7
:1032900037EC1AF0010E37EC1AF0060E37EC1AF084
:1032A000800E37EC1AF01200016E01A05AEF19F0EF
:1032B0005CEF19F05FEF19F08B8060EF19F08B90E5
:1032C00001A265EF19F067EF19F06AEF19F08B8230
:1032D0006BEF19F08B9201A470EF19F072EF19F0F7
:1032E00075EF19F08B8476EF19F08B9401A67BEFC4
:1032F00019F07DEF19F080EF19F08A8881EF19F04D
:103300008A98898600F000F08996120054C058F01F
:1033100055C059F0000E0001C06F000EBF6FA4EF42
:1033200019F052C040F053C041F0580E426E000EEA
:10333000436E56C044F057C045F079EC0CF0405055
:103340000001BF274150C02358C0F6FF59C0F7FF06
:103350000800F5500009D8A4B0EF19F0B2EF19F049
:1033600091EF19F0BFC052F0C0C053F0120003C07B
:1033700007F004C008F001C009F002C00AF00750CD
:10338000056E0850066E074A082A05C0F6FF06C0FB
:10339000F7FFF86A09C0D9FF0AC0DAFF094A0A2A0A
:1033A000070EF76403D00800F55005D0F6CFE1FF13
:1033B000F7CFE2FFE750DF6EDF50D8A4E2EF19F05D
:1033C000E4EF19F0BFEF19F01200960E00019A6FAA
:1033D000000E9B6F92C09CF093C09DF0000EA06FFA
:1033E000000E9F6F000EA66F000EA56F9C0E526E12
:1033F000000E536E94C054F095C055F09A0E566E60
:10340000000E576E86EC19F000019F519225D96E7F
:10341000A0519321DA6E000EDF6E1200010E076ECE
:10342000200E01180210D8B418EF1AF01AEF1AF093
:1034300033EF1AF0F70E036EFF0E046E01C005F0B5
:1034400002C006F00350052604500622065009E18A
:10345000050E055CD8A02FEF1AF031EF1AF033EF0C
:103460001AF0000E076E07C001F0026A1200036E28
:10347000899403380F0B54EC19F003500F0B54ECE4
:1034800019F00304D8B447EF1AF049EF1AF052EFDD
:103490001AF0020E0318D8A450EF1AF052EF1AF0E7
:1034A0005BEF1AF0030E026E980EE82EFED7022E86
:1034B000FCD75FEF1AF0120EE82EFED700F01200D4
:1034C000BF0E096EFF0E0A6E07C00BF008C00CF0AD
:1034D00009500B260A500C220C5007E11A0E0B5C07
:1034E000D8B075EF1AF077EF1AF07EEF1AF0200ED1
:1034F0000710076E0850086E82EF1AF007C007F039
:1035000008C008F01200000E2C1A000E2D1A000E32
:103510002E1A800E2F1A28C001F029C002F02AC0EE
:1035200003F02BC004F02CC005F02DC006F02EC017
:1035300007F02FC008F019EC0AF001C028F002C013
:1035400029F003C02AF004C02BF01200000E106E08
:10355000000E0F6EB7EF1AF00EC001F0026A0CC039
:1035600003F00DC004F0EDEC16F00F4A102A0F50D6
:103570000A24D96E10500B20DA6EDF500E6E0E50FA
:10358000D8A4C5EF1AF0C7EF1AF0ACEF1AF012008A
:10359000BF0E036EFF0E046E01C005F002C006F000
:1035A000035005260450062206500AE11A0E055C57
:1035B000D8A0DDEF1AF0E0EF1AF0010EE1EF1AF0FB
:1035C000000E016E026A1200015002100310041076
:1035D000D8B4EDEF1AF0EFEF1AF0F7EF1AF0000E93
:1035E000011A000E021A000E031A800E041A01C0FE
:1035F00001F002C002F003C003F004C004F01200A6
:10360000D00E036EFF0E046E01C005F002C006F07E
:10361000035005260450062206500AE10A0E055CF6
:10362000D8A015EF1BF018EF1BF0010E19EF1BF0DF
:10363000000E016E026A1200056E05C003F003461B
:103640000346C2500318C30B0318C26EC282C2B233
:103650002CEF1BF02EEF1BF027EF1BF0C450046E75
:10366000036AC3500324016E000E0420026E120090
:1036700001C003F002C004F040EF1BF0014A022A2F
:1036800001C0D9FF02C0DAFFDF50D8A44AEF1BF017
:103690004CEF1BF03EEF1BF00350015C016E045039
:1036A0000258026E12005EEF1BF003C0D9FF04C087
:1036B000DAFFDF50A6EC1BF0034A042A03C0D9FF4F
:1036C00004C0DAFFDF50D8A468EF1BF06AEF1BF0EC
:1036D00055EF1BF0120001EE00F0500EEE6AE80606
:1036E000FDE100EEB7F00A0EEE6AE806FDE15F6A62
:1036F0005E6A5D6A5C6A5B6A5A6A000EF86E000177
:10370000C2EF18F001500302F3CF05F0F4CF06F03A
:1037100001500402F350062602500302F35006261D
:1037200005C001F006C002F01200CF0EC116C15054
:10373000F00B0E09C16EC050C70B1009C06EC0500F
:10374000F80B0409C06EC08EC2801200026E89841C
:1037500002380F0B54EC19F002500F0B54EC19F017
:0C376000120EE82EFED700F0120012003E
:020000040020DA
:08000000FFFFFFFFFFFFFFFF00
:020000040030CA
:0E0000000000181EFF8381FF0FC00FE00F40AD
:00000001FF
