:0400000007EF00F016
:10000800028209ED00F03AEF00F00600F2A40FEFCB
:1000180000F011EF00F023EF00F08AA216EF00F0D5
:100028001AEF00F0016A012A1BEF00F0016A01468D
:100038008A500118FD0B01188A6ED668F294029254
:10004800110093800F0EC16E92889392F28EF294F3
:10005800F28A33EC00F02FEF00F007EF00F0D58CB8
:10006800D58AD586D588D668D58E12000290029298
:06007800000125EF00F07D
:020000040020DA
:08000000FFFFFFFFFFFFFFFF00
:020000040030CA
:0E0000000000191EFF8381FF0FC00FE00F40AC
:00000001FF
